S013000055534152542D54782D52782E7372656392
S11300000C942A000C9434000C9434000C943400A6
S11300100C9434000C9434000C9434000C9434008C
S11300200C9434000C9434000C9434000C9434007C
S11300300C9434000C9434000C9434000C9434006C
S11300400C9434000C9434000C9434000C9434005C
S11300500C94340011241FBECFE5D8E0DEBFCDBF21
S11300600E9445000C9452000C94000088E18AB967
S113007086E880BD87E089B908955D9BFECF8CB981
S113008008955F9BFECF8CB108958FEF8ABB17BA9A
S113009088BB0E9436000E9441008BBB86B30E943D
S10B00A03D00F9CFF894FFCFF5
S9030000FC
