:100000000C942A000C943F000C943F000C943F0089
:100010000C943F000C943F000C943F000C943F0064
:100020000C943F000C943F000C943F000C943F0054
:100030000C943F000C943F000C943F000C943F0044
:100040000C943F000C943F000C943F000C943F0034
:100050000C943F0011241FBECFE5D8E0DEBFCDBF1A
:1000600010E0A0E6B0E0EEE5F2E002C005900D92EF
:10007000A038B107D9F70E940E010C942D010C9401
:10008000000095B39F70282F207F922B95BB95B3CE
:100090009E7F95BB95B39D7F95BB95B3946095BBB3
:1000A000000095B39B7F95BB36E03A95F1F700C011
:1000B00025B330E1839FC0011124922F9F70892BBB
:1000C00085BB85B3846085BB000085B38B7F85BB12
:1000D000089595B39F70282F207F922B95BB95B3E1
:1000E000916095BB95B39D7F95BB95B3946095BB8F
:1000F000000095B39B7F95BB25B330E1839FC00182
:100100001124922F9F70892B85BB85B3846085BB9A
:10011000000085B38B7F85BB08958FEF84BB85B3CB
:100120008B7F85BB83EF91E00197F1F700C0000062
:1001300083E30E94410091E29A95F1F7000082E387
:100140000E94410081E28A95F1F7000088E20E9456
:10015000410091E29A95F1F700008EE00E94410083
:1001600081E28A95F1F7000081E00E94410083EF6F
:1001700091E00197F1F700C0000086E00E94410085
:1001800091E29A95F1F700000895CF93DF9300D0A4
:1001900000D0CDB7DEB790E8998390EC9A8394E9CC
:1001A0009B8394ED9C83E62FF0E0319721E030E0D3
:1001B0002C0F3D1FE20FF31F9081890F81500E9489
:1001C000410031E23A95F1F700000F900F900F9047
:1001D0000F90DF91CF9108950F931F93CF938C01D0
:1001E000C0E003C00E946900CF5FF801EC0FF11D71
:1001F00080818111F7CFCF911F910F91089588E1F0
:100200008AB986E880BD87E089B908955D9BFECFF5
:100210008CB908955F9BFECF8CB108950E948D002C
:1002200061E081E00E94C50080E690E00E94EC0061
:1002300062E081E00E94C50084E690E00E94EC004C
:100240008FEF8ABB17BA88BB0E94FF0086B30E945B
:0E02500006010E940A018BBBF9CFF894FFCF84
:10025E005945530044726976657220576F726B6907
:10026E006E67205375636365737366756C6C790086
:00000001FF
